1010000000720000000000022102018161094101BCO. VENEZOLANO DE CRED                                
61J0003103756202210170000500038000000000055314415
62J0003103756220000310026171001380040560400009470000000000000149405
62J0003103756220000310027171001380040560400009470000000000000348395
62J0003103756220000310027171001380040560400009470000000000000099385
62J0003103756220000310027171001380040560400009470000000000000010375
62J0003103756220000310028171001380040560400009470000000000002188365
62J0003103756220000310028171001380040560400009470000000000002984355
62J0003103756220000310029171001380040560400009470000000000002188345
62J0003103756220000310029171001380040560400009470000000000000995335
62J0003103756220000310030171001380040560400009470000000000002188325
62J0003103756220000310030171001380040560400009470000000000000995315
62J0003103756220000310031171001380040560400009470000000000002188305
62J0003103756220000310031171001380040560400009470000000000000995295
62J0003103756220000310032171001380040560400009470000000000002188285
62J0003103756220000310032171001380040560400009470000000000000995275
62J0003103756220000310033171001380040560400009470000000000002188265
62J0003103756220000310033171001380040560400009470000000000000995255
62J0003103756220000310034171001380040560400009470000000000001194245
62J0003103756220000310034171001380040560400009470000000000000995235
62J0003103756220000310035171001380040560400009470000000000002188225
62J0003103756220000310035171001380040560400009470000000000000995215
62J0003103756220000310036171001380040560400009470000000000002188205
62J0003103756220000310036171001380040560400009470000000000000995195
62J0003103756220000310037171001380040560400009470000000000002188185
62J0003103756220000310037171001380040560400009470000000000000995175
62J0003103756220000310038171001380040560400009470000000000001989165
62J0003103756220000310038171001380040560400009470000000000000995155
62J0003103756220000310039171001380040560400009470000000000002188145
62J0003103756220000310039171001380040560400009470000000000000995135
62J0003103756220000310040171001380040560400009470000000000001989125
62J0003103756220000310040171001380040560400009470000000000000995115
62J0003103756220000310041171001380040560400009470000000000002188105
62J000310375622000031004117100138004056040000947000000000000099595
62J000310375622000031004217100138004056040000947000000000000218885
62J000310375622000031004217100138004056040000947000000000000099575
62J000310375622000031004317100138004056040000947000000000000218865
62J000310375622000031004317100138004056040000947000000000000099555
62J000310375622000031004417100138004056040000947000000000000218845
62J000310375622000031004417100138004056040000947000000000000099535
